:03000000020026D5
:0C002600787FE4F6D8FD75811802006DAB
:0C01AE00071261626300000000011100F4
:0B0221001201E512021112000E80FE17
:1001E500439850438920438780758DF3758BF3D2EF
:0601F5008ED2ACD2AF2255
:10021100438901758CFF758A38D2A9D28CD2AF225D
:030023000200B226
:0D00B200C0E0C0D075D000C004C005C0077C
:1000BF00309866AF99C298EFF47009E51170057525
:1000CF0011018057E511FD7C00640170078F0B75DE
:1000DF0011028047ED64024C70078F0C751103807D
:1000EF003AED64034C70078F0D751104802DED648C
:1000FF00044C70078F0E7511058020ED64054C7050
:10010F00078F0F7511068013ED64064C70068F1064
:0B011F00F51180077511008002C299E5
:0B012A00D007D005D004D0D0D0E032C8
:1001FB001201CC6010F5993099FDC299740129F95F
:06020B00E43AFA80EB2248
:1001BA00030B000000030E00000001080002090002
:0101CA000034
:10000E00750B14750C32750D50750E14750F327507
:03001E001050225D
:03000B00020135BA
:04013500C0E0C0D096
:10013900758CFF758A38050AE50A700205090508F4
:10014900E50864647002F508E50AB4F40BE509B43E
:100159000106750900750A00E508C3950B50028070
:1001690001C392A7E508C3950C50028001C392A66A
:10017900E508C3950D50028001C392A5E508C39512
:100189000E50028001C392A4E508C3950F50028066
:1001990001C392A3E508C3951050028001C392A23E
:0501A900D0D0D0E032CF
:10003200020221E493A3F8E493A34003F68001F2C1
:1000420008DFF48029E493A3F85407240CC8C333CF
:10005200C4540F4420C8834004F456800146F6DF9E
:10006200E4800B01020408102040809001AEE47E7F
:10007200019360BCA3FF543F30E509541FFEE49393
:10008200A360010ECF54C025E060A840B8E493A35A
:10009200FAE493A3F8E493A3C8C582C8CAC583CA85
:1000A200F0A3C8C582C8CAC583CADFE9DEE780BE3D
:0101CB000033
:1001CC00BB010689828A83E0225002E722BBFE0231
:0901DC00E32289828A83E4932264
:00000001FF
